:020000040800F2
:100000000004002047060008390200083B020008EF
:100010003F020008430200084702000800000000F9
:100020000000000000000000000000004B0200087B
:100030004D020008000000004F02000851020008B5
:1000400067060008670600086706000867060008DC
:1000500067060008670600086706000867060008CC
:1000600067060008670600086706000867060008BC
:1000700067060008670600086706000867060008AC
:10008000670600086706000867060008670600089C
:10009000670600086706000867060008670600088C
:1000A000670600086706000867060008670600087C
:1000B000670600086706000867060008670600086C
:1000C000670600086706000867060008670600085C
:1000D00067060008D71700086903000867060008CC
:1000E000670600086706000867060008670600083C
:1000F000670600086706000867060008670600082C
:10010000670600086706000867060008670600081B
:10011000670600086706000867060008670600080B
:1001200067060008670600086706000867060008FB
:1001300000F002F800F044F80AA090E8000C8244B5
:100140008344AAF10107DA4501D100F039F8AFF292
:10015000090EBAE80F0013F0010F18BFFB1A43F0A5
:1001600001031847401B0000601B0000103A24BF29
:1001700078C878C1FAD8520724BF30C830C144BF0C
:1001800004680C607047000000230024002500264E
:10019000103A28BF78C1FBD8520728BF30C148BFEA
:1001A0000B607047642901F08B83782901F0C083CC
:1001B000002070471FB5AFF300801FBD10B510BD04
:1001C00001F021FD1146FFF7F5FF00F022F801F0E4
:1001D0003FFDFFF7F3FF01F045FD000010B501F012
:1001E00035F801F0A9F800F0D7F900F00FFA4FF454
:1001F000165001F0A4FA00F0ACF8132108A001F0A9
:100200007DFA10BD10B500F094F808B100F00FF9B8
:1002100010BD10B5FFF7E2FF01E0FFF7F3FFFCE7C9
:1002200053797374656D2052756E6E696E672E2EEC
:100230002E0D0A0000000000704700BFFEE700BF5F
:10024000FEE700BFFEE700BFFEE77047704770475C
:1002500070470000A6480078A5494978884201D136
:10026000012070470020FCE70020A1490870487079
:1002700070479F480078401C0C2190FBF1F201FB75
:1002800012009B494978884201D101207047002023
:10029000FCE770B504460D4695490A78891C01EBC8
:1002A000C2102A46214601F090FB002190480278B6
:1002B000801C00EBC21041558D48017800F20260AD
:1002C00045548B480078401C0C2190FBF1F201FB57
:1002D000120087490870084600784978401A0C21B6
:1002E00090FBF1F201FB1200C0B270BD70B5044684
:1002F0000D4601267E48437800F20260C25C7C48CD
:100300004378801C00EBC311204601F05EFB784867
:10031000417800F20260405C287075484078401CCB
:100320000C2190FBF1F201FB12007149487030463C
:1003300070BD10B5FFF78EFF08B1002010BD012081
:10034000FCE770B504460D4629462046FFF7CEFF70
:1003500070BD10B5FFF788FF0020664908704FF4A4
:10036000E13001F090F810BD30B5A7B00821624827
:1003700000F013FF012806D108215F4800F01AFFA2
:100380005D4800F0A0FE40F225515B4800F01BFFE5
:10039000012843D1584800F096FEC4B220215648A7
:1003A00000F008FF554853490978445451480078F3
:1003B00038B952484F490978405C812801D027B0AC
:1003C00030BD4C480078401C4A4908700846007807
:1003D000082823D14948C37982794179007902AD4F
:1003E0000FC54648C3788278CDE900234378027868
:1003F00043A107A801F018FA07A801F0C7FAC5B28F
:10040000294607A801F07AF9FFF733FF18B9082148
:100410003A48FFF73EFF002036490870CFE770B535
:1004200004460D462946204601F00CF870BD70B513
:1004300096B0002500200590402106A801F00BFB96
:1004400005A906A8FFF77DFF9DF81440224634A1B8
:1004500001A801F0E9F901A801F098FAC6B2314605
:1004600001A801F04BF900BF0EE006A8425D2FA1E4
:1004700001A801F0D9F901A801F088FAC6B2314605
:1004800001A801F03BF96D1CA542EEDB9DF81800B8
:1004900081282AD19DF81900012805D100F06CF8B7
:1004A0000F2124A001F02AF99DF81900022806D195
:1004B000002000F061F8102122A001F01FF99DF842
:1004C0001900032806D1012000F080F80F2122A096
:1004D00001F014F99DF81900042806D1002000F05D
:1004E00075F8102120A001F009F916B070BD0000C8
:1004F000B000002014000020004400403000002024
:100500000D0A257820257820257820257820257843
:100510002025782025782025780D0A00000000008D
:100520006C656E3D25640D0A000000002564200006
:10053000000000000D0A6F70656E206C69676874BA
:100540000D0A00000D0A636C6F7365206C696768A3
:10055000740D0A00000000000D0A6F70656E204ADD
:1005600044510D0A000000000D0A636C6F73652092
:100570004A44510D0A00000010B50446002C05DD68
:100580004FF48071104800F0FBF904E04FF48071E3
:100590000D4800F0F3F910BD08B50121082000F066
:1005A000EFFB4FF48070ADF8000010208DF80300D1
:1005B00003208DF802006946034800F037F9002057
:1005C000FFF7DAFF08BD0000000C014010B504463B
:1005D000002C05DD4FF48041194800F0D1F904E00A
:1005E0004FF48041164800F0C9F910BD10B504461B
:1005F000002C05DD4FF40041114800F0C1F904E082
:100600004FF400410E4800F0B9F910BD08B50121C2
:10061000082000F0B5FB4FF44040ADF8000010207A
:100620008DF8030003208DF802006946044800F0AD
:10063000FDF80020FFF7CAFF0020FFF7D7FF08BD35
:10064000000C014070470B4880470B4981F3088834
:100650000A480047FEE7FEE7FEE7FEE7FEE7FEE7A3
:10066000FEE7FEE7FEE7FEE705480649044A064BBB
:100670007047000045060008A00F00203101000867
:10068000A0070020A00F0020A0070020324901434E
:10069000324A1160704770B5002100230F22C478E0
:1006A0000CB32E4C246804F4E064C4F5E064210A21
:1006B000C1F10403CA40447804FA03F18478144079
:1006C00021430901264C0678A155047804F01F0542
:1006D0000124AC4005786D114FF0E02606EB85054E
:1006E000C5F8004109E0047804F01F040125A54085
:1006F0001C4C0678761144F8265070BD1A4A0A4000
:100700000243164B1B1F1A60704741B1134A121D5A
:10071000126802434FF0E023C3F8102D07E00F4AA0
:10072000121D126882434FF0E023C3F8102D70476A
:10073000042808D14FF0E021096941F004014FF08D
:10074000E022116107E04FF0E021096921F0040186
:100750004FF0E022116170470000FA050CED00E057
:1007600000E400E080E100E080FFFF1F10B50446D8
:10077000C748844208D10121042000F01BFB00215E
:10078000042000F017FB46E0C248844208D1012152
:10079000082000F00FFB0021082000F00BFB3AE0DE
:1007A000BD48844208D10121102000F003FB002144
:1007B000102000F0FFFA2EE0B848844208D1012151
:1007C000202000F0F7FA0021202000F0F3FA22E0C8
:1007D000B348844208D10121402000F0EBFA002107
:1007E000402000F0E7FA16E0AE48844208D101212B
:1007F000802000F0DFFA0021802000F0DBFA0AE020
:10080000A948844207D10121801500F0D3FA0021C4
:10081000A01500F0CFFA10BD10B50121084600F078
:10082000C9FA0021012000F0C5FA10BDF0B5002280
:100830000023002400250026002791F803C00CF0B7
:100840000F0291F803C01CF0100F03D091F802C002
:100850004CEA0202B1F800C01CF0FF0F31D006686C
:1008600000242BE04FF0010C0CFA04F5B1F800C0A5
:100870000CEA0503AB4220D1A5004FF00F0C0CFA97
:1008800005F7BE4302FA05FC4CEA060691F803C0E0
:10089000BCF1280F06D14FF0010C0CFA04FCC0F893
:1008A00014C00AE091F803C0BCF1480F05D14FF025
:1008B000010C0CFA04FCC0F810C0641C082CD1D345
:1008C0000660B1F800C0BCF1FF0F34DD46680024BB
:1008D0002EE004F1080C4FF0010E0EFA0CF5B1F801
:1008E00000C00CEA0503AB4221D1A5004FF00F0C6C
:1008F0000CFA05F7BE4302FA05FC4CEA060691F82D
:1009000003C0BCF1280F05D104F1080C0EFA0CFE4F
:10091000C0F814E091F803C0BCF1480F07D104F10E
:10092000080C4FF0010E0EFA0CFEC0F810E0641C2B
:10093000082CCED34660F0BD4FF6FF710180022136
:1009400081700421C17070470246002093680B42F9
:1009500001D0012000E0002070470146886880B285
:10096000704702460020D3680B4201D0012000E00E
:10097000002070470146C86880B270470161704727
:10098000416170470AB1016100E041617047C16097
:1009900070474FF480320A438261816182618269CB
:1009A000826970470022414B1A684FF680731A40E3
:1009B00042EA00120A433D4B1A6070473C49C86145
:1009C0007047F0B5002200230024002500F0004607
:1009D000B6F1004F02D1354EF46901E0334E746830
:1009E000C0F3034582B200F44016B6F5401F08D1AB
:1009F00024F070642D4E766826F070662B4F7E6072
:100A000012E000F48016B6F5801F06D1032606FA20
:100A100005F39C4344F0706406E0460D360102FA8B
:100A200006F6B44344F0706421B1460D360102FA73
:100A300006F6344300F00046B6F1004F02D11B4EDB
:100A4000F46101E0194E7460F0BD30B500228B07EF
:100A50001C0F0F2303FA04F2144B08338C1053F8C5
:100A6000244094438D1043F825408C1053F82430D3
:100A70008C07240F00FA04F423430C4C08348D1027
:100A800044F8253030BD0A49DC3108607047000069
:100A900000080140000C014000100140001401401A
:100AA00000180140001C01400020014000000140EE
:100AB00000002042DB48006840F00100D94908608E
:100AC00008464068D8490840D6494860084600684A
:100AD000D6490840D34908600846006820F48020C1
:100AE00008600846406820F4FE0048604FF41F008C
:100AF00088607047CB49096821F48031C94A116088
:100B00001146096821F480211160B0F5803F03D0BF
:100B1000B0F5802F0ED106E0C249096841F480315A
:100B2000C04A116007E0BF49096841F4A021BD4AED
:100B3000116000E000BF00BF704710B50146002201
:100B4000002300204A11012A02D1B64C236806E096
:100B5000022A02D1B34C236A01E0B24C636A01F06D
:100B60001F02012494401C4201D0012000E000201B
:100B700010BD70B500240025002600BF3120FFF70E
:100B8000DCFF0646641CB4F5A06F01D0002EF5D042
:100B90003120FFF7D2FF08B1012500E000252846EB
:100BA00070BD00219F4A116821F0F80141EAC0019F
:100BB000116070479E49086070470022994B5A683F
:100BC00022F47C1240EA01031A43964B5A607047A4
:100BD0009749086670470021924A516821F0030145
:100BE0000143516070478F48406800F00C00704727
:100BF00000218C4A516821F0F00101435160704797
:100C00000021884A516821F4E06101435160704736
:100C10000021844A516821F4605141EAC0015160C9
:100C2000704729B17F4A527A02437E4B5A7206E0DE
:100C30007C4A527AC343DBB21A407A4B5A727047ED
:100C40007B49D831086070470021764A516821F409
:100C500040410143516070470021724A20321170B7
:100C6000704A82F82010012802D004280AD104E03A
:100C700001216C4A2032117005E00521694A2032B9
:100C8000117000E000BF00BF70476A4908607047FC
:100C90006449096A0143634A1162704765494439EE
:100CA0000860704730B500210022002300245D4D0C
:100CB0006D6805F00C0121B1042905D0082923D164
:100CC00005E05D4D056022E05B4D05601FE0554D80
:100CD0006D6805F47012534D6D6805F4803302257C
:100CE00005EB92421BB9554D554305600BE04D4D48
:100CF0006D6815F4003F03D0504D5543056002E088
:100D00004D4D5543056002E04B4D056000BF00BFEF
:100D1000444D6D6805F0F0010909494D6C5C0568AA
:100D2000E54045603F4D6D6805F4E061090A444DBA
:100D30006C5C4568E54085603A4D6D6805F460512E
:100D4000C90A3F4D6C5C4568E540C560354D6D682E
:100D500005F44041890B3A4D10356C5CC568B5FB14
:100D6000F4F5056130BD29B12E4A526902432D4B7D
:100D70005A6104E02B4A526982432A4B5A617047F8
:100D800029B1284A92690243264B9A6104E0254A18
:100D900092698243234B9A61704729B1214AD269F3
:100DA0000243204BDA6104E01E4AD26982431D4BA4
:100DB000DA61704729B11B4AD2680243194BDA60E5
:100DC00004E0184AD2688243164BDA60704729B1B2
:100DD000144A12690243134B1A6104E0114A126962
:100DE0008243104B1A6170471249403908607047BE
:100DF0000F49C86470470B49C87170470948406A79
:100E000040F0807007494862704701460020054A5B
:100E100092680A4201D0012000E000207047014999
:100E200088727047001002400000FFF8FFFFF6FED6
:100E3000000042428004424200127A0000093D0054
:100E40001600002010B50446FB48844209D1012158
:100E50008803FFF7AFFF00214FF48040FFF7AAFFA0
:100E600032E0F648844209D101214804FFF7AFFF80
:100E700000214FF40030FFF7AAFF25E0F04884423C
:100E800009D101218804FFF7A2FF00214FF480203F
:100E9000FFF79DFF18E0EB48844209D10121C80407
:100EA000FFF795FF00214FF40020FFF790FF0BE0C4
:100EB000E548844208D101210805FFF788FF002199
:100EC0004FF48010FFF783FF10BD2DE9F04786B087
:100ED00004460D460026002700BFB146B246A88949
:100EE00000B100BFA246268A4CF6FF700640E88893
:100EF00006432682A6894EF6F3100640A888298963
:100F00000843698908430643A681A68A4FF6FF4035
:100F10000640A8890643A68201A8FFF7C3FE5446EF
:100F2000C548824501D1049F00E0039FA08910F4C9
:100F3000004F08D007EBC70000EB071029684900F5
:100F4000B0FBF1F807E007EBC70000EB07102968DA
:100F50008900B0FBF1F86420B8FBF0F0060130091D
:100F6000642101FB1089A08910F4004F09D03221BF
:100F700001EBC9006421B0FBF1F000F0070006436B
:100F800008E0322101EB09106421B0FBF1F000F020
:100F90000F000643268106B0BDE8F0874FF41651D6
:100FA000016000218180C18001810C2141810021EB
:100FB0008181704710B50022028A4FF2FF031A4068
:100FC0000B884C8823438C882343CC8823431A43C3
:100FD000028210BD0021018041808180C180704764
:100FE00021B1828942F40052828104E082894DF667
:100FF000FF731A4082817047F0B500240025002657
:101000000023A1F510676A3F00D100BF0346C1F37A
:10101000421401F01F05012707FA05F6012C01D142
:101020000C3304E0022C01D1103300E014331AB168
:101030001F6837431F6002E01F68B7431F60F0BDA1
:1010400010B51AB1838A0B43838204E0838ACC43B0
:10105000A4B22340838210BD028A4FF6F0731A4077
:101060000282028A0A430282704782894FF2FF732A
:101070001A40828182890A438281704721B1828924
:1010800042F00202828104E082894FF6FD731A4029
:1010900082817047028A4FF6DF731A400282028A09
:1010A0000A430282704721B1028A42F480420282DE
:1010B00004E0028A4BF6FF731A4002827047C1F3C4
:1010C00008028280704701468888C0F30800704794
:1010D000818941F0010181817047028BD2B2028384
:1010E000028B42EA012202837047028B02F47F42A4
:1010F0000283028B0A430283704721B1828A42F045
:101100002002828204E0828A4FF6DF731A408282D4
:10111000704721B1828A42F01002828204E0828A02
:101120004FF6EF731A408282704721B1828A42F0F3
:101130000802828204E0828A4FF6F7731A408282A4
:10114000704721B1828942F40042828103E08289A2
:10115000C2F30E028281704721B1828A42F400629A
:10116000828204E0828A4FF2FF731A4082827047C3
:10117000828A4FF6FB731A408282828A0A438282F5
:10118000704721B1828A42F00202828204E0828AA0
:101190004FF6FD731A408282704702460020B1F577
:1011A000007F00D100BF13880B4201D0012000E076
:1011B0000020704701F40072B2F5007F00D100BF3B
:1011C000CA430280704770B5024600230024002500
:1011D0000020A1F510666A3E00D100BFC1F34215A0
:1011E00001F01F04012606FA04F4012D02D19689AC
:1011F000344006E0022D02D1168A344001E0968A7E
:1012000034400B12012606FA03F31688334014B15A
:101210000BB1012000E0002070BD10B500220023BA
:10122000A1F510646A3C00D100BF0A120124944069
:10123000A3B2DC43048010BD0038014000440040EC
:1012400000480040004C00400050004010B5002015
:1012500035490870401FFFF76BFA3448006834497D
:10126000B0FBF1F033490870084600784FF47A710A
:1012700048433049891C088010BD2B4A127822B19E
:10128000092802D30922B0FBF2F02A4A127842431D
:101290004FF0E0235A6100229A611A46126942F027
:1012A00001021A6100BF4FF0E022116911F0010F35
:1012B00002D011F4803FF6D04FF0E022126922F004
:1012C00001024FF0E0231A6100229A617047164A2A
:1012D00012782AB1092803DB092290FBF2F290B2BE
:1012E000144A921C128842434FF0E0235A610022B4
:1012F0009A611A46126942F001021A6100BF4FF06A
:10130000E022116911F0010F02D011F4803FF6D0F4
:101310004FF0E022126922F001024FF0E0231A613F
:1013200000229A61704700002E000020000000207B
:1013300000127A002A00002010B54FF4A060FFF7D9
:10134000A5F910BD394A0A400243394B1A6070476B
:1013500000B5002037490861C860142048610020AA
:101360008861C8610846006840F0010008600846CE
:101370004068314908402F494860084600682F49B5
:1013800008402C4908600846006820F48020086066
:101390000846406820F4FE00486000208860002174
:1013A0004FF00060FFF7CEFF00BD30B504460025CA
:1013B000FFF7CEFF1F48006840F480301D490860E9
:1013C00000BF1C480068400CFBD04FF480601949F6
:1013D0004860A01EC4B20846406840EA84404860A5
:1013E0000846406840F4803048601548006840F086
:1013F0003200134908600F48006840F080700D49C2
:10140000086000BF0B480068400EFBD009484068E8
:1014100040F002000749486005E006484068C0F314
:10142000870505F00305022DF7D130BD80FFFF1FB2
:1014300008ED00E0001002400000FFF8FFFFF6FE9C
:10144000002002402DE9F04104460D460026002709
:1014500000BF14E02778ED4800883946EB48FFF7D5
:101460002EFE00BF4021E948FFF797FE0028F9D083
:101470004021E648FFF79EFE641C701CC6B2AE42D7
:10148000E8DBBDE8F08110B586B0044601214804D0
:10149000FFF783FC01210420FFF772FC0420ADF864
:1014A000140003208DF8160018208DF8170005A9E8
:1014B000D748FFF7BBF90820ADF8140004208DF8D9
:1014C000170005A9D248FFF7B1F926208DF80000D2
:1014D00004208DF8010001208DF802008DF8030032
:1014E0006846FFF7D8F801940020ADF80800ADF881
:1014F0000A00ADF80C00ADF810000C20ADF80E009D
:1015000001A9C248FFF7E1FC4021C048FFF752FEA5
:10151000012240F22551BD48FFF76EFD0121BB4875
:10152000FFF75EFD06B010BD2DE9F04104460D4603
:101530000026002700BF14E02778B6480088394607
:10154000B448FFF7BCFD00BF4021B248FFF725FEBD
:101550000028F9D04021AF48FFF72CFE641C701C16
:10156000C6B2AE42E8DBBDE8F08110B586B00446F5
:1015700001218804FFF711FC01210820FFF700FC7E
:101580004FF48060ADF8140003208DF81600182089
:101590008DF8170005A9A048FFF748F94FF400603F
:1015A000ADF8140004208DF8170005A99A48FFF73C
:1015B0003DF927208DF8000003208DF8010004205C
:1015C0008DF8020001208DF803006846FFF763F8EC
:1015D00001940020ADF80800ADF80A00ADF80C0049
:1015E000ADF810000C20ADF80E0001A98948FFF7F6
:1015F0006CFC40218748FFF7DDFD012240F22551B8
:101600008448FFF7F9FC01218248FFF7E9FC06B0A6
:1016100010BD2DE9F04104460D460026002700BF0D
:1016200014E027787D48008839467C48FFF747FD5D
:1016300000BF40217948FFF7B0FD0028F9D04021D4
:101640007648FFF7B7FD641C701CC6B2AE42E8DBFB
:10165000BDE8F08110B586B004460121C804FFF74B
:101660009CFB01211020FFF78BFB4FF48060ADF84D
:10167000140003208DF8160018208DF8170005A916
:101680006748FFF7D3F84FF40060ADF8140004206A
:101690008DF8170005A96248FFF7C8F834208DF8C7
:1016A000000003208DF8010005208DF802000120C4
:1016B0008DF803006846FEF7EEFF01940020ADF8B8
:1016C0000800ADF80A00ADF80C00ADF810000C20D1
:1016D000ADF80E0001A95148FFF7F7FB40214F4834
:1016E000FFF768FD012240F225514C48FFF784FCCA
:1016F00001214A48FFF774FC06B010BD2DE9F04106
:1017000004460D460026002700BF14E02778454810
:10171000008839464348FFF7D2FC00BF40214148CA
:10172000FFF73BFD0028F9D040213E48FFF742FD7E
:10173000641C701CC6B2AE42E8DBBDE8F08110B597
:1017400086B00446012144F20400FFF719FB4FF470
:101750000070ADF8140003208DF8160018208DF8E5
:10176000170005A92A48FFF761F84FF48060ADF82B
:10177000140004208DF8170005A92548FFF756F836
:1017800025208DF8000003208DF801008DF802005F
:1017900001208DF803006846FEF77DFF01940020CC
:1017A000ADF80800ADF80A00ADF80C00ADF8100077
:1017B0000C20ADF80E0001A91A48FFF786FB0122A4
:1017C00040F225511748FFF717FC01211548FFF794
:1017D00007FC06B010BD10B5002408211148FFF722
:1017E000DCFC012806D108210E48FFF7E3FC0D4878
:1017F000FFF769FC40F225510A48FFF7E4FC18B1F5
:101800000848FFF760FCC4B210BD0000004400406F
:101810000008014000480040000C0140004C00401E
:1018200000100140003801400FB408491CB506AB58
:101830006A4679440090059800F093F900206946C3
:1018400000F0A2F91CBC5DF814FB0000530300007B
:101850002DE9F04104460E4600202BE0E1682046C9
:10186000884748B3252802D0D4E901211FE0E16868
:1018700020460027884705001ED0A5F14100192801
:1018800002D820354FF400673246294620462760AB
:10189000FEF788FC40B1012801D1361DDEE7F61DB8
:1018A00026F007060836D9E7D4E9012128469047F3
:1018B000206A401C2062D1E7206ABDE8F081000068
:1018C0002DE9F0418046002610687529414614A58F
:1018D00011D0AFF30080002802DA404211A508E0E1
:1018E000D8F800108A0701D50FA502E0490704D5F2
:1018F0000EA5012601E0AFF30080002408F12407C3
:1019000004E000F078F930313955641C0028F8D132
:1019100033462A4621464046BDE8F04100F0C5B8AE
:10192000000000002D0000002B000000200000003F
:1019300070B504460D4621461068AFF3008021685B
:10194000090502D5104A7A4402E00F4A7A440E3261
:10195000002104F1240306E000F00F064FEA101006
:10196000965D5E54491C0028F6D1206800230007CC
:1019700004D5702D02D009B1113202232046BDE8F2
:10198000704000F092B800003003000010B5431C16
:1019900004E010F8011B09B9C01A10BD8107F8D185
:1019A0004FF0013202C88C1A8C4314EAC211F9D0EC
:1019B000C01A0A0601D0C01E10BD0A0401D0801E44
:1019C00010BD0902FCD0401E10BD032A40F2318038
:1019D00010F0030C00F0158011F8013BBCF1020F70
:1019E000624498BF11F801CB00F8013B38BF11F8F1
:1019F000013BA2F1040298BF00F801CB38BF00F808
:101A0000013B11F0030300F0C480083AC0F00980E4
:101A100051F8043B51F804CB40F8043B40F804CBA8
:101A2000F3E7121D5CBF51F8043B40F8043BAFF3F1
:101A30000080D20724BF11F8013B11F801CB48BF49
:101A400011F8012B24BF00F8013B00F801CB48BF7F
:101A500000F8012B70474FF0000200B51346944682
:101A60009646203922BFA0E80C50A0E80C50B1F1F6
:101A70002001BFF4F7AF090728BFA0E80C5048BF0A
:101A80000CC05DF804EB890028BF40F8042B08BFA8
:101A9000704748BF20F8022B11F0804F18BF00F8A4
:101AA000012B70477047704770472DE9F0470D468E
:101AB00004469246994600F124080168880604D538
:101AC000E06921F01001216000E001200027A84218
:101AD00000DD471BA1697A1902EB0900081AA06111
:101AE0002068C00602D42046AFF30080002608E03C
:101AF000D4E901211AF806009047206A401C761CA0
:101B000020624E45F4DB2068C0060AD52046AFF3BC
:101B1000008006E0D4E9012130209047206A401C73
:101B20002062381EA7F10107F4DC07E0D4E90121A7
:101B300018F805009047206A401C2062281EA5F175
:101B40000105F3DC2046AFF300802168022009067E
:101B500000D40120BDE8F08701694A1C02610878C1
:101B6000704710B50C46194690B0CDE902420022EC
:101B70000692044A7A44CDE9042001A8FFF768FEE2
:101B800010B010BDE1FFFFFF0A6802F8010B0A6008
:101B9000704710B5203AC0F00B80B1E81850203AD9
:101BA000A0E81850B1E81850A0E81850BFF4F5AFFD
:101BB0005FEA027C24BFB1E81850A0E8185044BF87
:101BC00018C918C0BDE810405FEA827C24BF51F8F4
:101BD000043B40F8043B08BF7047D20728BF31F8E8
:101BE000023B48BF11F8012B28BF20F8023B48BF39
:101BF00000F8012B70474FF00A01B0FBF1F202FB35
:101C0000110110467047754600F028F8AE460500F1
:101C10006946534620F00700854618B020B5FEF708
:101C200023FDBDE820404FF000064FF000074FF0C5
:101C300000084FF0000B21F00701AC46ACE8C009EA
:101C4000ACE8C009ACE8C009ACE8C0098D467047F3
:101C50000446AFF300802046FEF7BBFA0048704709
:101C60004007002003494FF01800ABBE704700004A
:101C7000090000002600020070473031323334354D
:101C800036373839414243444546403058003031B8
:101C900032333435363738396162636465664030D3
:101CA00078000000C41C0008000000203000000084
:101CB0006C010008F41C000830000020700F0000C8
:101CC0008801000800A24A04000000000000000093
:101CD00001020304060708090000000000000102D9
:101CE00003040102030406070809020406080000B1
:041CF00000000000F0
:0400000508000131BD
:00000001FF
